:020000040800F2
:10000000C0060020650200084112000839120008ED
:100010003D1200085D0400080D14000800000000F7
:10002000000000000000000000000000491200086D
:100030006104000800000000451200084D1200088D
:100040007F0200087F0200087F0200087F0200088C
:100050007F0200087F0200087F0200087F0200087C
:100060007F0200087F0200087F0200087F0200086C
:100070007F0200087F0200087F0200087F0200085C
:100080007F0200087F0200087F02000800000000D5
:100090000000000000000000000000007F020008D7
:1000A0007F0200087F0200087F0200087F0200082C
:1000B000091300087F0200087F0200087F02000881
:1000C0007F0200087F0200087F0200087F0200080C
:1000D0007F0200087F0200087F0200080000000085
:1000E0007F0200087F0200087F0200080000000075
:1000F0000000000000000000000000007F02000877
:10010000000000007F0200087F0200087F02000854
:1001100000000000000000000000000000000000DF
:100120007F0200087F0200087F0200087F020008AB
:100130007F02000800000000000000000000000036
:100140000000000000000000000000007F02000826
:100150007F0200087F0200087F0200087F0200087B
:100160007F0200087F02000800000000000000007D
:10017000000000000000000000000000000000007F
:10018000000000007F0200080000000000000000E6
:100190007F0200087F02000800F002F800F052F829
:1001A00014A696E8000CB244B344DA4501D100F03D
:1001B00049F8BAE80F000FA696E83000A5EB040551
:1001C00004EB0607AAEB0704A7F101074FEA151590
:1001D0004FEA3414A4F10104AC4201D300F032F828
:1001E00013F0010F18BFFB1A43F0010300F001F8F0
:1001F000DBE718471013000030130000103A24BF4B
:1002000078C878C1FAD8520724BF30C830C144BF7B
:1002100004680C6070470000704700000023002451
:1002200000250026103A28BF78C1FBD8520728BF06
:1002300030C148BF0B6070471FB501F04EF91FBDBC
:1002400010B510BD00F0D0F81146FFF7F5FF01F032
:10025000DFF800F0EEF803B4FFF7F2FF03BC00F0A4
:10026000F5F800000948804709480047FEE7FEE727
:10027000FEE7FEE7FEE7FEE7FEE7FEE7FEE7FEE756
:1002800004480549054A064B70470000F51200086E
:1002900099010008C0000020C0060020C002002014
:1002A000C002002053EA020C00F069802DE9F04BF7
:1002B0004FF00006002B1FBFB3FA83F503FA05F4D5
:1002C00024FA05F65E4012BF1643B2FA82F502FA2E
:1002D00005F4C5F120051EBF22FA05FC44EA0C0412
:1002E000203556EA044C4FEA144418BF641C4FF002
:1002F00000084FF00009904271EB030C39D300293C
:1003000019BFB1FA81F701FA07F6B0FA80F700FADF
:1003100007F6C7F120071EBF20FA07FC46EA0C06C5
:100320002037B6FBF4FCA7EB0507103F07F01F0BC7
:10033000CBF120062CFA06F60CFA0BFB44BFB346B1
:100340000026202FA4BF5E464FF0000B5BEA060C90
:1003500008BF4FF0010B19EB0B0948EB0608ABFB8C
:10036000027C06FB02CC0BFB03CCC01B71EB0C0127
:10037000C1E70B46024641464846BDE8F08B13B53F
:10038000084318BF4FF0FF300146AFF30080BDE8CF
:100390001C4070474FF0000200B513469446964645
:1003A000203922BFA0E80C50A0E80C50B1F1200188
:1003B000BFF4F7AF090728BFA0E80C5048BF0CC036
:1003C0005DF804EB890028BF40F8042B08BF704794
:1003D00048BF20F8022B11F0804F18BF00F8012B06
:1003E0007047704770477047754600F02BF8AE466F
:1003F00005006946534620F00700854618B020B531
:10040000FFF73EFFBDE820404FF000064FF0000729
:100410004FF000084FF0000BAC46ACE8C009ACE868
:10042000C009ACE8C009ACE8C00921F007018D465D
:10043000704710B50446AFF300802046BDE8104079
:10044000FFF709BF0048704710000020014918203D
:10045000ABBEFEE72600020070470000FEE700008A
:10046000704700002DE9F04F83B000F1200200F149
:100470003E4741F20005009207F1FF77C4F2020502
:1004800007224FEAB726A84208BF042200254FF0F2
:1004900000084FF00009042E38BF4FEAB72201923E
:1004A0000AE000BF09F1010908F10208B9F1100FD3
:1004B00005F1040500F0A2800F68012202FA09FE8E
:1004C00017EA0E0AEED0D1F804C003220CF003079D
:1004D0007E1E02FA08F4012E6FEA040B12D884681B
:1004E000CE6804EA0B0406FA08F6344384604468D4
:1004F00024EA0E06CCF3001404FA09F426434660FD
:1005000004E000BF032F01D103271EE0C6688C68FA
:1005100006EA0B0604FA08F42643022FC66014D13B
:100520006FF00302009E02EA590756F807C005F073
:100530001C040F220B69A2402CEA0202A3401A43BA
:10054000F251D1F804C00CF00307026807FA08F36F
:1005500002EA0B021A431CF4403F0260A2D00022C0
:1005600043F644030292C4F202031A6843F60044BD
:1005700042F480421A601A68C4F2010402F4804214
:100580000292029A29F003024FF6084C2244CFF659
:10059000FF7C52F80C3005F00C070F26BE40B34329
:1005A000019E06FA07F73B4342F80C30A2684B68FD
:1005B00042EA0A0743F60C4CDE0258BF22EA0A0759
:1005C000A760C4F2010CDCF800209E0242EA0A0790
:1005D00058BF22EA0A07CCF8007062689E0342EA1C
:1005E0000A0758BF22EA0A0767602268DB0342EA6B
:1005F0000A0758BF22EA0A07276053E703B0BDE89D
:10060000F08F0000426902EA0103914341EA03418D
:1006100081617047002A08BF0904816170470000AA
:1006200040F2BC00C2F200000068704740F20000D7
:1006300040F2BC01C2F20000C2F2000100780A6878
:10064000104408607047000080B543F60040C4F2D3
:100650000200016841F400710160016841F48061A9
:100660000160016841F480710160032000F086F8A8
:100670000F2000F005F800F027F8002080BD0000F2
:1006800070B540F20006C2F2000640F2080132786E
:10069000C2F200014FF47A730968B3FBF2F2044628
:1006A000B1FBF2F1084600F037FB0F2C4FF00105CB
:1006B00008D838B94FF0FF3021460022002500F05D
:1006C00031F87460284670BD82B0002043F64001C6
:1006D0000190C4F202014A6842F480424A604A68CA
:1006E00002F480420192019A0090086840F0805024
:1006F0000860086800F080500090009802B07047D1
:10070000002848BF704700F01F01012202FA01F1E2
:100710001C2202EAD0004EF20012CEF200028150FA
:100720007047000010B54EF60C5CCEF2000CDCF801
:100730000030C3F3022E8EF00704042C28BF0424DB
:10074000BEF103034FF0FF3E0EFA04F438BF00235E
:10075000A14399400EFA03F39A43114300F00F02AC
:1007600000F160430901043A03F564436244002840
:1007700048BF02F10C03197010BD00004EF60C5179
:10078000CEF200010A684FF6FF031A4060F30A2216
:1007900042F0806040F0FD7008607047002804BFA0
:1007A000012070472DE9F04143F60808C4F2020821
:1007B0000446D8F8F8030D4600F00700884207D237
:1007C00088F8F853D8F8F80300F00700A84277D16A
:1007D0002068810717D5410705D5D8F8001041F4E6
:1007E000E051C8F80010010705D5D8F8001041F411
:1007F0006041C8F80010D8F80010A26821F0F0019C
:100800001143C8F80010C00740D1D8F8F80300F031
:100810000700A84207D988F8F853D8F8F80300F081
:100820000700A8424CD12068410707D5D8F800102E
:10083000E26821F4E0511143C8F80010000708D520
:10084000D8F80000216920F4604040EAC100C8F8EF
:10085000000000F055F8D8F8001041F2F442C1F35E
:100860000311C0F60002515C40F2080220FA01F1C7
:1008700040F20400C2F200000068C2F200021160FF
:10088000FFF7FEFE0020BDE8F08100BF6068811E1A
:10089000022907D258F8081C89015CBF0120BDE875
:1008A000F08111E0012807D158F8081C89035CBFCA
:1008B0000120BDE8F08107E058F8081C890703D43F
:1008C0000120BDE8F08100BFD8F8001021F003013D
:1008D0000843C8F80000FFF7A3FE064641F2883738
:1008E000D8F80000616800F00C00B0EB810F8CD0EC
:1008F000FFF796FE801BB842F2D90320BDE8F081D5
:1009000010B543F60404C4F20204606800F00C0061
:1009100008280BD0042819BF42F20040C0F2F400AE
:1009200047F64000C0F27D1010BD00BF206821686E
:100930002368490247F64001C0F27D1100F03F02F2
:10094000C3F388105CBF42F20041C0F2F401A1FB86
:1009500000010023FFF7A6FC21680222C1F3014138
:1009600002EB4101B0FBF1F010BD0000002804BF14
:10097000012070472DE9F04182B00446007843F62B
:100980000006C007C4F202060CD0B06800F00C00EC
:10099000042840F081803068800303D56068002817
:1009A00000F06881207880071BD5B06810F00C0F2C
:1009B00009D0B06800F00C00082840F0878070680B
:1009C000400200F183803068800703D5E068012889
:1009D00040F050813068216920F0F80040EAC10001
:1009E00030602078000713D4207840072AD4A56906
:1009F000002D00F03A81B06800F00C00082840F0AB
:100A0000A580012D40F00E81012002B0BDE8F081EB
:100A10006069002800F082800020C4F24720012194
:100A2000C0F8801EFFF7FCFD054600BF706F800711
:100A3000DAD4FFF7F5FD401B0228F7D9032002B0F6
:100A4000BDE8F081306C5FEAC0080AD40020019054
:100A5000306C40F080503064306C00F08050019079
:100A6000019847F20007C4F200073868C00547D470
:100A7000386840F480703860FFF7D2FD054600BF4B
:100A80003868C0053CD4FFF7CBFD401B0228F7D9DE
:100A9000032002B0BDE8F081B06800F00C00082827
:100AA00003D1706840023FF576AF61683068B1F5F8
:100AB000803F07D0B1F5A02F40F09A8040F480200D
:100AC0003060306840F4803030609AE0E0680028A0
:100AD00040F20000C4F247205CD001210160FFF722
:100AE0009FFD0546306880073FF574AFFFF798FD1E
:100AF000401B0228F6D9032002B0BDE8F08100BFF8
:100B0000A168306F012905D0052955D140F00400B6
:100B10003067306F40F00100306756E00020C4F2CB
:100B200047200021C0F8801EFFF77AFD054600BF70
:100B3000706F80077FF558AFFFF772FD401B0228EA
:100B4000F6D9032002B0BDE8F08100BF0027C4F24F
:100B5000472700203866FFF763FD022D05460DD1BB
:100B60003068800140F18A80FFF75AFD401B02285F
:100B70004FF00300F4D902B0BDE8F0813068800185
:100B800073D5FFF74DFD401B02284FF00300F5D948
:100B9000F1E700BF00210160FFF742FD054600BFFD
:100BA000306880077FF51DAFFFF73AFD401B022834
:100BB0004FF00300F4D9DEE720F001003067306F1A
:100BC000002920F0040030677AD0FFF729FD0546A0
:100BD00041F28837306F800700F18480FFF720FDF5
:100BE000401BB842F6D9032002B0BDE8F08100BF37
:100BF00020F4803030603068002920F4802030609C
:100C00007AD0FFF70DFD0546306880033FF5CAAE88
:100C1000FFF706FD401B6428F6D9032002B0BDE8AB
:100C2000F08100BF7068E16900F480028A4221D13E
:100C3000216A00F03F028A421CD147F6C071626A05
:100C40000140B1EB821F15D1A16A4FF6FF73C903B2
:100C5000994300F44032A1F580318A420AD1E16A19
:100C600000F07060B0EB016F04D1002002B0BDE86D
:100C7000F08100BF012002B0BDE8F08104F11C0545
:100C80002FCD084340EA8210D9034FF6FF729143FB
:100C9000A1F5803140EA05600843706001203866A4
:100CA000FFF7BEFC044600BF30688001DDD4FFF7CB
:100CB000B7FC001B02284FF00300F5D95BE700BF2B
:100CC000FFF7AEFC054641F2883700BF306F800762
:100CD00008D5FFF7A5FC401BB8424FF00300F5D93B
:100CE00049E700BFB8F1000F3FF581AE306C20F04E
:100CF000805030647BE600BFFFF792FC054600BFE2
:100D0000306880037FF54EAEFFF78AFC401B6428F5
:100D10004FF00300F4D92EE7411E0020B0EB116F15
:100D20001CBF012070474EF21002CEF2000251604B
:100D30004EF62351CEF20001F0230B700721906094
:100D400011607047704700007047000090F83C2029
:100D5000012A4FF0020241D010B580F83D20026810
:100D6000D2F804E0D2F808C00C682EF070032343D8
:100D700040F6FF34C4F20004A242536010DCB2F12A
:100D8000804F1ED040F20043C4F200039A4218D0B4
:100D900040F60003C4F200039A4212D016E000BFEE
:100DA00040F60043C4F200039A420AD044F2000322
:100DB000C4F201039A4204D00023C4F201039A4210
:100DC00004D149682CF0800319439160012100226D
:100DD00080F83D1080F83C20BDE810401046704778
:100DE000002804BF0120704710B5044690F83D006C
:100DF00028B9002084F83C00204600F01FF80220AB
:100E000084F83D002068211D00F084FA012084F858
:100E1000460084F83E0084F83F0084F8400084F8DF
:100E2000410084F8420084F8430084F8440084F8C8
:100E3000450084F83D00002010BD00000068B0F1BE
:100E4000804F18BF704780B582B00020019043F6F4
:100E50004000C4F202000168002241F0010101607B
:100E60000068002100F00100019001981C20FFF7AC
:100E700059FC1C2002B0BDE88040FFF741BC0000D7
:100E800090F83D1001291CBF01207047022180F815
:100E90003D10006840F6FF32C168C4F20002904283
:100EA00041F00101C1600FDCB0F1804F1DD040F274
:100EB0000041C4F20001884217D040F60001C4F29C
:100EC0000001884211D017E040F60041C4F2000151
:100ED00088420AD044F20001C4F20101884204D0E1
:100EE0000021C4F20101884206D1816801F00701A6
:100EF000062904BF00207047016841F0010101602C
:100F00000020704790F83C20012A4FF002026CD07C
:100F100080B580F83D20D0F800C04FF67772DCF83D
:100F2000083023EA0202CCF808200B684F2B29DC9A
:100F30001F2B45DD202B46D0302B44D0402B40F0DA
:100F4000AF80D1F804E0C968DCF82030DCF820205C
:100F500022F00102CCF82020DCF8182022F0F00268
:100F600042EA011123F00A0242EA0E02CCF81810FC
:100F7000CCF82020DCF8081041F0470121F03001C6
:100F800028E000BF6F2B33DDB3F5005F74D0B3F5FD
:100F9000805F21D0702B40F08380D1E901E3C968E4
:100FA000DCF8082043EA0E0322F47F4243EA0121E1
:100FB0001143CCF80810DCF8081041F0770109E083
:100FC0000BB1102B6CD1DCF8081021F07001194323
:100FD00041F00701CCF808100022012180F83D10F3
:100FE000002180F83C10BDE880401046704700BFEB
:100FF000502B21D0602B53D1D1F804E0C968DCF824
:101000002030DCF8202022F01002CCF82020DCF880
:10101000182022F4704242EA013123F0A00242EA91
:101020000E12CCF81810CCF82020DCF8081041F093
:10103000670121F01001CDE7D1F804E0C968DCF8C0
:101040002030DCF8202022F00102CCF82020DCF84F
:10105000182022F0F00242EA011123F00A0242EACB
:101060000E02CCF81810CCF82020DCF8081041F063
:10107000570121F02001ADE7D1E901E3C968DCF8AF
:10108000082043EA0E0322F47F4243EA0121114380
:10109000CCF80810DCF8081041F480419AE700BF52
:1010A00001229AE77047000070B504460068C568E1
:1010B0000669B10716D515F0020113D06FF00201D1
:1010C0000161012121778069800703D02046FFF765
:1010D000E9FF05E0204600F08FF8204600F08EF88A
:1010E00000202077700719D515F0040016D020686D
:1010F0006FF00401016102212177806910F4407FC3
:1011000004D02046FFF7CEFF06E000BF204600F0E7
:1011100073F8204600F072F800202077300717D5CA
:1011200015F0080014D020686FF008010161042157
:101130002177C069800703D02046FFF7B3FF05E0A1
:10114000204600F059F8204600F058F8002020779B
:10115000F00619D515F0100016D020686FF01001B8
:10116000016108212177C06910F4407F04D0204636
:10117000FFF798FF06E000BF204600F03DF820464C
:1011800000F03CF800202077F00718BF15F00100B0
:1011900002D1300609D412E020686FF0010101612C
:1011A000204600F02DF8300609D515F0800006D055
:1011B00020686FF0800101612046FFF7C3FD7006D3
:1011C00009D515F0400006D020686FF0400101619C
:1011D000204600F02FF8B00658BF70BD15F0200073
:1011E00008D021686FF0200220460A61BDE87040F7
:1011F000FFF7AABD70BD00007047000070470000F7
:101200000068B0F1804F18BF704710B540F2B804C5
:10121000C2F20004206801303228206007D3002089
:10122000C4F202002021FFF7EDF900202060BDE8A4
:101230001040704770470000FEE70000FEE7000026
:10124000FEE700007047000070470000FFF7EEB9AE
:1012500070B592B006AC20463021FFF79BF8002510
:1012600043F640000595CDE90355CDE901550095BC
:10127000C4F202000168022641F08051016000685A
:1012800000F080500090009847F200000095C4F2F2
:101290000000016841F440410160006800F44040F2
:1012A000009000980120099010200A9008200E90CC
:1012B0006420CDE90F060420119020460696CDE962
:1012C0000C65FFF753FB18B172B600BFFEE700BF15
:1012D0000F20CDE901064FF48050CDE9040501A8A7
:1012E00003210395FFF75AFA10B172B6FEE700BF6B
:1012F00012B070BD4EF68850CEF20000016841F485
:10130000700101607047000040F27000C2F20000FE
:10131000FFF7CABEB0B540F2FF7E0568C4F2000E0A
:1013200040F2000C7045C4F2010C1DDD40F60003D4
:10133000C4F20003984220D060451ED040F600431E
:10134000C4F20003984218D04FF6FF73C4F20003B2
:1013500098421DDC704527DCB0F1804F3CD040F254
:101360000043C4F2000335E0B0F1804F05D040F2F5
:101370000043C4F200039842E6D14B6825F07002A6
:1013800043EA02054FF6FF73C4F200039842E1DD21
:1013900044F2FF33C4F20103984211DC60451BD0D4
:1013A00044F2000314E000BF40F60003C4F200035F
:1013B000984211D040F60043C4F200030AE000BF97
:1013C00044F60003C4F20103984205D044F20043FE
:1013D000C4F20103984204D1CB6825F4407243EA79
:1013E00002050A688C684B696045C462826202D15A
:1013F0000969CCF83010026825F0800142F004023F
:1014000019430260012242610160B0BDFEE70000A5
:1014100088B0FFF719F9FFF71BFF002543F63000EE
:101420000595CDE90355CDE901550695C4F20200B5
:101430000168002441F0010101600068C4F2020467
:1014400000F0010006900698204620210022202668
:10145000FFF7E0F80120CDE9020501A92046019639
:101460000495FEF7FFFF40F27000C2F200004FF05B
:10147000804163230495CDE90255CDE9065542F23A
:101480000F7280E82600C0E903358561FFF7A8FCEC
:1014900010B172B6FEE700BF4FF48050019040F2E9
:1014A0007000C2F2000001A9FFF72CFD10B172B666
:1014B000FEE700BF40F27000C2F2000006A9FFF78D
:1014C00045FC18B172B600BFFEE700BF40F27000E5
:1014D000C2F20000FFF7D4FCFEE7F1EE100A4FF66F
:1014E000FF71C0F2C03120EA010040F04070E1EE2F
:1014F000100A704700000000000000000102030411
:101500000607080928150008000000201000000048
:10151000FC0100083815000810000020B00600008B
:101520001C02000800000000010000001000000084
:081530000024F400000000009B
:040000050800019955
:00000001FF
